S00C00006D61696E2E7372656373
S11300000C9434000C943E000C943E000C943E007E
S11300100C943E000C943E000C943E000C943E0064
S11300200C943E000C943E000C943E000C943E0054
S11300300C943E000C9440000C943E000C943E0042
S11300400C9452000C943E000C943E000C943E0020
S11300500C943E000C943E000C943E000C943E0024
S11300600C943E000C943E0011241FBECFEFD8E048
S1130070DEBFCDBF0E9464000C947C000C94000091
S11300801F920F920FB60F9211248F939F9395B1E5
S113009081E0892785B99F918F910F900FBE0F90B2
S11300A01F9018951F920F920FB60F9211248F93E1
S11300B09F9395B182E0892785B99F918F910F9085
S11300C00FBE0F901F901895209A2898219A29986E
S11300D085B5816085BD80916E00816080936E00DE
S11300E08091810081608093810080916F008160A4
S10F00F080936F007894FFCFF894FFCF4A
S9030000FC
